:020000040800F2
:10000000A84C0020A9010008310A0008290A0008AC
:100010002D0A000805090008EB1400080000000084
:10002000000000000000000000000000990F000820
:100030000909000800000000810E0008AD1000084A
:10004000C3010008C3010008C3010008C301000880
:10005000C3010008C3010008C3010008C301000870
:10006000C3010008C3010008C3010008C301000860
:10007000C3010008C3010008C3010008C301000850
:10008000C3010008C3010008C3010008C301000840
:10009000C3010008C3010008C3010008C301000830
:1000A000C3010008C3010008C3010008C301000820
:1000B000C301000811110008C3010008C3010008B2
:1000C000C3010008C3010008C3010008C301000800
:1000D000C3010008C9120008C3010008C3010008D9
:1000E000C3010008C3010008C301000800F002F8C2
:1000F00000F04BF80AA090E8000C82448344AAF177
:100100000107DA4501D100F040F8AFF2090EBAE874
:100110000F0013F0010F18BFFB1A43F0010318473B
:10012000F844000018450000103A24BF78C878C190
:10013000FAD8520724BF30C830C144BF04680C60ED
:10014000704700000023002400250026103A28BF35
:1001500078C1FBD8520728BF30C148BF0B60704739
:10016000642900F09980732900F0378300207047DC
:100170001FB500F04DFB04000020002102F040FFFD
:10018000401C60601FBD10B510BD00F04DFB114656
:10019000FFF7EEFF01F0F6FC00F06BFB03B4FFF796
:1001A000F2FF03BC01F033FA0948804709480047D1
:1001B000FEE7FEE7FEE7FEE7FEE7FEE7FEE7FEE717
:1001C000FEE7FEE704480549054A064B7047000074
:1001D000B1100008ED000008A8460020A84C00203F
:1001E000A8480020A8480020704710B5044600F039
:1001F00059FA0068005DC00602D504F1200010BD68
:10020000204610BD0FB4044910B503AA029800F0AF
:10021000E9FA10BC5DF814FB2C0000200FB41CB5EB
:10022000074B06AA7B4469460090059800F0ABFA9C
:100230000020694600F0BAFA1CBC5DF814FB00000F
:100240008505000070B50C460546012A05D02878C2
:10025000800600D5EA69002302E0012305E05B1C6B
:10026000934202D2E05C0028F9D1A869E618C01ACE
:10027000A861286A184428622846AFF3008004E089
:10028000D5E9012114F8010B9047B442F8D3284670
:10029000AFF3008070BD00002DE9F0410646002458
:1002A00010687529314616A510D0AFF300800028DC
:1002B00002DA404213A507E031688A0701D512A58A
:1002C00002E0490704D511A5012401E0AFF3008045
:1002D00000210A2206F1240709E0B0FBF2FCB0FB82
:1002E000F2F302FB1C00303078541846491C0028F9
:1002F000F3D123462A463046BDE8F04100F0E5B987
:10030000000000002D0000002B0000002000000075
:100310002DE9F05F894604464FF0000ADFF824B16A
:10032000FB44C0F820A02046E168884700287DD023
:10033000252806D0D4E901219047206A401C20627C
:10034000F1E700255F462046E168884720280646F9
:1003500007DB312E05D2B81910F8200C08B105437F
:10036000F1E7A80701D525F00405C4F81CA0002773
:10037000C4F818A02A2E09D0304601F041F938B34C
:1003800004EB8708303EC8F8186019E059F8041BE0
:10039000204604EB87029161E1688847012F0646F9
:1003A00018D1E069002820DA25F020051DE0D8F8F2
:1003B000180000EB800006EB40003038C8F8180049
:1003C0002046E1688847064601F01AF90028EED178
:1003D000012F0AD02E2E08D12046E16888477F1CC5
:1003E0000646022F45F02005C4DBA069002803DA89
:1003F000404245F00105A061E80701D025F0100555
:10040000A6B1A6F14100192802D8203645F40065AE
:100410004A463146204625604D46FFF7A1FE60B1B1
:10042000012807D0ED1D25F0070000E007E000F1EE
:10043000080978E705F1040975E730467AE7206A8C
:10044000BDE8F09F6341000010B5431C02E010F8C6
:10045000011B71B18107FAD14FF0013202C88C1A29
:100460008C4314EAC211F9D0C01A0A0603D0C01E88
:1004700010BDC01A10BD0A0401D0801E10BD0902B3
:10048000FCD0401E10BD40EA010370B59B072ED181
:100490004FF00136042A2AD308C810C99D1B9D437A
:1004A000121F15EAC61517D0D8B2E1B2401A50EAA9
:1004B000056110D198B2A1B2401A50EA05410AD1A3
:1004C00023F07F4024F07F41401A50EA052102D1F9
:1004D000180EA0EB146070BDA342DBD018BA21BA8D
:1004E000884201D9012070BD4FF0FF3070BD0AB9BC
:1004F000002070BD10F8013B11F8014B63B1A3421D
:100500000AD1521E08D010F8013B11F8014B1BB163
:10051000A34201D1521EEDD1181B70BD032A40F237
:10052000308010F0030C00F0158011F8013BBCF195
:10053000020F624498BF11F801CB00F8013B38BFAD
:1005400011F8013BA2F1040298BF00F801CB38BFBB
:1005500000F8013B11F0030300F02580083AC0F0D9
:10056000088051F8043B083A51F804CBA0E8081081
:10057000F5E7121D5CBF51F8043B40F8043BAFF3B4
:100580000080D20724BF11F8013B11F801CB48BF0E
:1005900011F8012B24BF00F8013B00F801CB48BF44
:1005A00000F8012B704710B5203AC0F00B80B1E87D
:1005B0001850203AA0E81850B1E81850A0E8185098
:1005C000BFF4F5AF5FEA027C24BFB1E81850A0E8A1
:1005D000185044BF18C918C0BDE810405FEA827CBB
:1005E00024BF51F8043B40F8043B08BF7047D207D2
:1005F00028BF31F8023B48BF11F8012B28BF20F873
:10060000023B48BF00F8012B70474FF0000204295D
:10061000C0F0128010F0030C00F01B80CCF1040C31
:10062000BCF1020F18BF00F8012BA8BF20F8022B65
:10063000A1EB0C0100F00DB85FEAC17C24BF00F80B
:10064000012B00F8012B48BF00F8012B70474FF039
:10065000000200B5134694469646203922BFA0E812
:100660000C50A0E80C50B1F12001BFF4F7AF09071E
:1006700028BFA0E80C5048BF0CC05DF804EB89000F
:1006800028BF40F8042B08BF704748BF20F8022B52
:1006900011F0804F18BF00F8012B7047704770476A
:1006A0007047704710B500F0B3F8001D10BD00BFD3
:1006B0005129000010B500F0AFF8006810BD10B56A
:1006C000044600F0A9F8046010BD2DE9F0470D467E
:1006D00099469246044600F124080168880604D52C
:1006E000E06921F01001216000E00120A84201DD55
:1006F000471B00E00027A1697A1902EB0900081ADC
:10070000A0612078C00602D42046AFF30080002606
:1007100008E0D4E901211AF806009047206A401C3D
:10072000761C20624E45F4DB2078C0060AD52046B0
:10073000AFF3008006E0D4E9012130209047206A21
:10074000401C2062381EA7F10107F4DC07E0D4E961
:10075000012118F805009047206A401C2062281EDD
:10076000A5F10105F3DC2046AFF3008020780006F8
:1007700002D50220BDE8F0870120FBE701694A1C91
:1007800002610878704700B58FB0CDE901310021D2
:10079000059105497944CDE9031011466846FFF7F4
:1007A000B7FD0FB000BD0000E5FFFFFF0A6802F8CB
:1007B000010B0A60704710B5436913B1AFF30080B5
:1007C00001E0FFF73FFD012010BD127800F1240188
:1007D0000A7000224A700122EDE711684FF0FF32E3
:1007E000E9E70000074B70B50D467B44FFF7CBFFF0
:1007F0000446284600F014F810B14FF0FF3070BDE9
:10080000204670BD7B13000000487047484600201A
:10081000004870476846002000487047484600205E
:10082000007B00F0800070477546FFF7EDFFAE4695
:1008300005006946534620F00700854618B020B5EC
:10084000FFF7C0FCBDE820404FF000064FF0000766
:100850004FF000084FF0000B21F00701AC46ACE868
:10086000C009ACE8C009ACE8C009ACE8C0098D46D5
:10087000704710B50446AFF300802046BDE8104035
:10088000FFF78CBC4FF0013C50F8042B51F8043BAF
:100890009A4221D1A2EB0C03934313EACC1317D154
:1008A00050F8042B51F8043B9A4215D1A2EB0C03EB
:1008B000934313EACC130BD150F8042B51F8043BAB
:1008C0009A4209D1A2EB0C03934313EACC13DBD079
:1008D0004FF00000704700BFD01A01BAB1FA81F1A1
:1008E00001F0180122FA01F0CB40C1F12001DBB286
:1008F000C0B2C01A2CFA01F3D11A914311EAC31104
:10090000E6D1704700BFFEE770472DE9F04102468F
:1009100000250026002000230024002791F803C0B2
:100920000CF00F0591F803C00CF0100CBCF1000F97
:1009300003D091F802C04CEA050591F800C0BCF163
:10094000000F31D0146800202BE04FF0010C0CFA9E
:1009500000F3B1F800C00CEA03069E4220D18300E8
:100960004FF00F0C0CFA03F7BC4305FA03FC4CEAFA
:10097000040491F803C0BCF1280F06D14FF0010C1C
:100980000CFA00FCC2F814C00AE091F803C0BCF1F4
:10099000480F05D14FF0010C0CFA00FCC2F810C052
:1009A000401C0828D1D31460B1F800C0BCF1FF0F7F
:1009B00034DD546800202EE000F1080C4FF00108EF
:1009C00008FA0CF3B1F800C00CEA03069E4221D1EC
:1009D00083004FF00F0C0CFA03F7BC4305FA03FC3D
:1009E0004CEA040491F803C0BCF1280F05D100F1D2
:1009F000080C08FA0CF8C2F8148091F803C0BCF196
:100A0000480F07D100F1080C4FF0010808FA0CF864
:100A1000C2F81080401C0828CED35460BDE8F08195
:100A2000416170470161704700BFFEE700BFFEE70C
:100A30007047000070B5002100230F22C47804B372
:100A4000154C246804F4E064C4F5E064210AC1F1A3
:100A50000403CA40447804FA03F184781440214323
:100A600009010E4C0678A155047804F01F050124F5
:100A7000AC4005786D11AD0005F1E025C5F80041E9
:100A800009E0047804F01F050124AC40044D067809
:100A9000761145F8264070BD0CED00E000E400E062
:100AA00080E100E070B5002419E004F1B001C8B2A3
:100AB000002100F0A5F90021084600F0A1F900216D
:100AC000102000F09DF9002505E00121002000F034
:100AD00097F9681CC5B2802DF7DB601CC4B2082CE6
:100AE000E3DB70BD08B50121082000F0DBF94FF40D
:100AF0007870ADF8000010208DF8030003208DF809
:100B0000020069464A48FFF700FF4FF478714848F1
:100B1000FFF788FF80214648FFF784FF642000F03C
:100B2000FDFF80214248FFF77BFFC82000F0F6FF61
:100B300080213F48FFF776FF0021AE2000F060F9EA
:100B40000021084600F05CF90021102000F058F95F
:100B50000021402000F054F90021812000F050F9DC
:100B60000021CF2000F04CF90021A12000F048F92D
:100B70000021C82000F044F90021A62000F040F92F
:100B80000021A82000F03CF900213F2000F038F9B6
:100B90000021D32000F034F90021084600F030F99C
:100BA0000021D52000F02CF90021802000F028F948
:100BB0000021D92000F024F90021F12000F020F9D3
:100BC0000021DA2000F01CF90021122000F018F9B1
:100BD0000021DB2000F014F90021402000F010F982
:100BE0000021202000F00CF90021022000F008F97B
:100BF00000218D2000F004F90021142000F000F9FC
:100C00000021A42000F0FCF80021A62000F0F8F854
:100C10000021AF2000F0F4F80021AF2000F0F0F840
:100C2000FFF740FF0021084600F004F808BD00006F
:100C3000000C014070B504460D4605F1B001C8B284
:100C4000002100F0DDF8102141EA1410002100F02D
:100C5000D7F804F00F0141F00100002100F0D0F8B6
:100C600070BD00002DE9F04107460E469046002574
:100C70000024A8F12000C5B27F2F02DD0027B01CA0
:100C8000C6B231463846FFF7D5FF002408E004EB32
:100C900005110F4A505C012100F0B2F8601CC4B28B
:100CA000082CF4DB701CC1B23846FFF7C3FF0024E8
:100CB00009E004EB05110831054A505C012100F000
:100CC0009FF8601CC4B2082CF3DBBDE8F081000083
:100CD000973E00082DE9F0470646894617469A4692
:100CE0004FF0000800240025BAF1010F03D0BAF13B
:100CF000020F61D126E021E0785D203800F0FF0886
:100D00007E2E04DD002609F1010000F0FF094946AE
:100D10003046FFF78FFF00240AE008EB4801284A1D
:100D200002EB4101085D012100F06AF8601CC4B2C9
:100D3000062CF2DBB01DC6B2681CC5B2785D002877
:100D4000DAD139E034E0785D203800F0FF08782E01
:100D500004DD002609F1010000F0FF094946304694
:100D6000FFF768FF002408E004EB0811154A505C07
:100D7000012100F045F8601CC4B2082CF4DB09F135
:100D80000100C1B23046FFF755FF002409E004EB33
:100D9000081108310B4A505C012100F031F8601C49
:100DA000C4B2082CF3DB06F10800C6B2681CC5B259
:100DB000785D0028C7D100BF00BFBDE8F087000004
:100DC0006F3C0008973E00082DE9F04104460F46AD
:100DD000154600260EE0AA5D39462046FFF742FF81
:100DE00004F10800C4B2782C02DD0024B81CC7B29C
:100DF000701CC6B2A85D0028EDD1BDE8F0810000EE
:100E000070B504460E4626B140211C48FFF70AFE85
:100E100003E040211948FFF703FE20211748FFF7A0
:100E2000FFFD00251BE04FF400711448FFF7F8FDAB
:100E300004F0800028B14FF480711048FFF7F2FDF4
:100E400004E04FF480710D48FFF7EAFD4FF40071A4
:100E50000A48FFF7E7FD6006040E681CC5B2082DBE
:100E6000E1DB20210548FFF7DDFD20210348FFF7E6
:100E7000D9FD40210148FFF7D5FD70BD000C0140B0
:100E80007047000029B1064AD2690243044BDA6177
:100E900004E0034AD2698243014BDA6170470000E3
:100EA0000010024029B1064A92690243044B9A613C
:100EB00004E0034A92698243014B9A617047000043
:100EC0000010024030B500210022002400232D4DE7
:100ED0006D6805F00C0121B1042905D0082923D142
:100EE00005E0294D056022E0274D05601FE0254DF6
:100EF0006D6805F47012234D6D6805F48034022589
:100F000005EB92421CB9214D554305600BE01D4D88
:100F10006D6805F400351DB11C4D5543056002E0B8
:100F2000194D5543056002E0174D056000BF00BF35
:100F3000144D6D6805F0F0010909154D6B5C0568ED
:100F4000DD4045600F4D6D6805F4E061090A104D04
:100F50006B5C4568DD4085600A4D6D6805F4605145
:100F6000C90A0B4D6B5C4568DD40C560054D6D6879
:100F700005F44041890B074D6B5CC568B5FBF3F583
:100F8000056130BD0010024000127A0000093D00EA
:100F90001400002024000020704710B500F002F873
:100FA00010BD00000CB5002001900090334800688F
:100FB00040F480303149086000BF3048006800F4D8
:100FC000003000900198401C0190009818B90198D9
:100FD000B0F5A06FF1D12948006800F4003010B1DD
:100FE0000120009001E0002000900098012843D1EA
:100FF0002348006840F01000214908600846006856
:1010000020F0030008600846006840F00200086015
:101010001A484068194948600846406848600846D0
:10102000406840F4806048600846406820F47C10C6
:1010300048600846406840F4E81048600846006888
:1010400040F08070086000BF0C48006800F000703D
:101050000028F9D00948406820F00300074948609B
:101060000846406840F00200486000BF03484068FE
:1010700000F00C000828F9D10CBD0000001002405F
:1010800000200240042808D14FF0E021096941F016
:1010900004014FF0E022116107E04FF0E0210969FF
:1010A00021F004014FF0E022116170477047000009
:1010B00010B51348006840F0010011490860084667
:1010C0004068104908400E494860084600680E49CB
:1010D00008400B4908600846006820F4802008603A
:1010E0000846406820F4FE0048604FF41F00886006
:1010F000FFF753FF4FF000600449086010BD000087
:10110000001002400000FFF8FFFFF6FE08ED00E0CF
:1011100010B50121094800F068F868B10848008856
:1011200040F40040064908800121044800F04EF8D0
:101130000021024800F04DF810BD000000040040FE
:10114000300000207FB505460C4601210220FFF744
:1011500099FEADF80450ADF800400020ADF806004F
:10116000ADF8020069460E4800F05CF80122114615
:101170000B4800F04BF80121094800F02AF81D2027
:101180008DF80C0000208DF80D0002208DF80E0067
:1011900001208DF80F0003A8FFF74CFC7FBD000075
:1011A0000004004010B5044644B10021064800F098
:1011B00036F80121044800F00CF803E00021024851
:1011C00000F007F810BD000000040040CA4302828E
:1011D000704721B1028842F00102028004E00288D7
:1011E0004FF6FE731A400280704730B50246002069
:1011F00000230024158A05EA0103958905EA010404
:1012000013B10CB1012000E0002030BD1AB1838978
:101210000B43838102E083898B4383817047818400
:1012200070470000002202881D4B98420ED01D4BD3
:1012300098420BD0B0F1804F08D01B4B984205D09C
:101240001A4B984202D01A4B984204D14FF68F7332
:101250001A404B881A43174B984207D0164B9842B6
:1012600004D04FF6FF431A40CB881A4302808B8884
:1012700083850B8803850A4B98420BD0094B984213
:1012800008D00E4B984205D00D4B984202D00D4B22
:10129000984201D10B7A03860123838270470000B4
:1012A000002C0140003401400004004000080040D0
:1012B000000C0040001000400014004000400140BD
:1012C000004401400048014010B540F22551184843
:1012D00000F04BF820B340F22551154800F030F8EB
:1012E000134800F0FDF8C4B21248008800F4004032
:1012F000B0B910480088B0F5FA7F12DA00210E4824
:10130000FFF78DFF0B48008810B90120FFF74AFF57
:10131000084801880088401C064A10800748445449
:1013200005E00448008840F400400249088010BDF0
:10133000003801403000002000040040540000202C
:1013400001F40072B2F5007F00D100BFCA430280F1
:10135000704721B1828942F40052828104E082897F
:101360004DF6FF731A408281704770B50246002423
:1013700000230025002040F66A16B14200D100BFCC
:10138000C1F3421501F01F03012606FA03F3012DF4
:1013900002D19689334006E0022D02D1168A3340ED
:1013A00001E0968A33400C12012606FA04F41688EE
:1013B000344013B10CB1012000E0002070BDF0B545
:1013C0000346002400260025002040F66A17B94293
:1013D00000D100BF1846C1F3421401F01F060127D7
:1013E00007FA06F5012C01D10C3004E0022C01D1E2
:1013F000103000E014301AB107682F43076002E094
:101400000768AF430760F0BD2DE9F04786B0054699
:101410000E460024A24600BFA1460027B08900B1B5
:1014200000BF2F462C8A4CF6FF700440F08804431E
:101430002C82AC894EF6F3100440B0883189084301
:10144000718908430443AC81AC8A4FF6FF400440E5
:10145000B0890443AC8201A8FFF734FD1F488742DE
:1014600002D1DDF810A001E0DDF80CA0A88900F49D
:10147000004040B10AEBCA0000EB0A103168490095
:10148000B0FBF1F807E00AEBCA0000EB0A10316884
:101490008900B0FBF1F86420B8FBF0F004012009EA
:1014A000642101FB1089A88900F4004040B132207A
:1014B00000EBC900B0FBF1F000F00700044308E0C6
:1014C000322000EB09106421B0FBF1F000F00F00B6
:1014D00004432C8106B0BDE8F087000000380140CD
:1014E00001468888C0F30800704700BFFEE7490046
:1014F00050EAC12018BF04204A0D18BF40F0010077
:1015000040F2FF72B2EB515F08BF40F002000128C9
:1015100008BF052070472DE9F0414F1E00EBC701C1
:101520000446D1E9000115461E4637F006020DD0EB
:101530002A46334602F010F87F1E04EBC703D3E9B6
:10154000002301F073FD37F00602F1D1022F25D000
:10155000042F13D0062F18BFBDE8F0812A4633466A
:1015600001F0FAFFD4E90A2301F060FD2A46334670
:1015700001F0F2FFD4E9082301F058FD2A46334672
:1015800001F0EAFFD4E9062301F050FD2A46334674
:1015900001F0E2FFD4E9042301F048FD2A46334676
:1015A00001F0DAFFD4E9022301F040FD2A46334678
:1015B00001F0D2FFD4E90023BDE8F04101F036BDCF
:1015C000002213461046014901F0ECBD0000F03F37
:1015D00001F02CBD002213461046114601F0E2BD79
:1015E00040F2013200204FF0E04102F0F7BA000073
:1015F000024A0020110702F0F1BA000001FDFFFFCE
:1016000030380A2801D20120704700207047014677
:1016100000BF704770B5044622E02568A08900F439
:10162000807020B9A06810B1A068FFF7F3FFA0890F
:1016300000F4807028B9206918B10B492069096845
:101640008847A08900F4007028B9206A18B10649BB
:10165000206A0968884720460349096888472C465C
:10166000002CDAD170BD00003C00002002469068DA
:1016700001E0491E006808B10029FADC7047014604
:101680008A68002001E0401C1268002AFBD17047E4
:1016900001480068704700003400002070B505461E
:1016A0000E46AC6800E024682CB13146206A00F098
:1016B000EDF90028F7D1204670BD000010B52820B4
:1016C00005490968884704461CB128212046FEF7D1
:1016D000BEFF204610BD00003800002010B50446B3
:1016E00000221146204600F001F810BD2DE9F04718
:1016F00080460D4616460024FFF7E0FF074600200F
:10170000124908600FB9BDE8F087404601F0EAFBD6
:1017100081464946384600F09BFE044624B93846C7
:10172000FFF778FF0020EEE766B1204601F0DAFB14
:101730000446207830B13846FFF76CFF0348046058
:101740000020E0E705B12C603846DCE734000020DB
:101750002DE9F84F80460D464046FFF7BFFF07468C
:101760004FB9FFF795FF8346594689A0FEF74AFD1A
:101770000120BDE8F88F8CA13846FFF78FFF814626
:101780004846FFF77CFF009089A00099FEF73AFDDC
:1017900000214846FFF76AFFB0F1000A7DD08CA116
:1017A0005046FFF77BFF061E78D08C48FEF72AFDD7
:1017B0008BA13046FFF772FF041E0ED089A0D4E93A
:1017C0000313226AFEF71EFD2069FEF73DFE8346E5
:1017D0005A4628462169FEF7A1FE92A13046FFF73E
:1017E0005DFF041E0FD07FA0D4E90313226AFEF729
:1017F00009FD2069FEF728FE83465A4605F12000C0
:101800002169FEF78BFE89A13046FFF747FF041ED2
:101810000FD074A0D4E90313226AFEF7F3FC206909
:10182000FEF712FE83465A4605F140002169FEF795
:1018300075FE80A13046FFF731FF041E0FD069A06E
:10184000D4E90313226AFEF7DDFC2069FEF7FCFDF4
:1018500083465A4605F160002169FEF75FFE77A1D5
:101860003046FFF71BFF041E0FD05EA0D4E9031320
:10187000226AFEF7C7FC2069FEF7E6FD83465A465A
:1018800005F1A0002169FEF749FE6FA13046FFF780
:1018900005FF041E12D053A001E073E00EE0D4E96E
:1018A0000313226AFEF7AEFC2069FEF7CDFD8346E6
:1018B0005A4605F1C0002169FEF730FE66A1504688
:1018C000FFF7ECFE061E44D06448FEF79BFC64A1C3
:1018D0003046FFF7E3FE041E0FD042A0D4E9031305
:1018E000226AFEF78FFC2069FEF7AEFD83465A465A
:1018F00005F1E0002169FEF711FE5BA13046FFF71C
:10190000CDFE041E0FD037A0D4E90313226AFEF7E0
:1019100079FC2069FEF798FD83465A4605F58070EC
:101920002169FEF7FBFD52A13046FFF7B7FE041E0A
:101930000FD02CA0D4E90313226AFEF763FC2069C0
:10194000FEF782FD83465A4605F590702169FEF741
:10195000E5FD4AA15046FFF7A1FE061E12D04A48F7
:10196000FEF750FC1FA0D6E90313326AFEF74AFCCB
:101970003069FEF769FD83465A4605F5A070216976
:10198000FEF7CCFD00BF3846FFF744FE0020F0E62E
:101990004572726F72206265666F72653A205B25D0
:1019A000735D200D0A000000726573756C7473001E
:1019B000634A534F4E5F4765744172726179536950
:1019C0007A653A2073697A653D2564200D0A000026
:1019D0006C6F636174696F6E000000002845000839
:1019E00069640000634A534F4E5F4765744F626AF3
:1019F0006563744974656D3A20747970653D25643A
:101A00002C20737472696E672069732025732C769D
:101A1000616C7565737472696E673D2573200D0A7C
:101A2000000000006E616D6500000000636F756E60
:101A300074727900706174680000000074696D65EB
:101A40007A6F6E650000000074696D657A6F6E656F
:101A50005F6F6666736574006E6F77007845000887
:101A60007465787400000000636F64650000000016
:101A700074656D7065726174757265006C61737404
:101A80005F75706461746500C845000870B50446F0
:101A90000D462CB9AC4201D0012070BD0020FCE7FE
:101AA0000DB90120F9E705E0207808B90020F4E736
:101AB000641C6D1C2078FEF798FB06462878FEF71C
:101AC00094FB8642F0D02078FEF78FFB06462878FC
:101AD000FEF78BFB301AE0E710B56FF00400FFF75C
:101AE000D1FA0A4800680A49B0FBF1F009490870C8
:101AF0000846007800EB4001C1EBC0104FF6FF71C3
:101B000001EAC0000449088010BD00000000002068
:101B100000127A00280000202A0000200146114A05
:101B200012884A434FF0E0235A6100229A611A4614
:101B3000126942F001021A6100BF4FF0E022106901
:101B400000F001021AB100F48032002AF5D04FF003
:101B5000E022126922F001024FF0E0231A61002214
:101B60009A6170472A00002000BF054A128802F0DF
:101B70004002002AF9D0C2B2014B1B1D1A807047E7
:101B800000380140E4B04FF4C07104A8FEF75FFDD7
:101B9000FFF7A2FF4FF4E13001F0D4F9FEF7A2FF06
:101BA00024A204210020FFF70FF942E02648008814
:101BB00000F40040002839D000BF04A92348FFF7F3
:101BC000C7FD23A0FEF71EFB3CA928A0FEF71AFBC9
:101BD0004CA926A0FEF716FBFEF764FF002000903C
:101BE0000190029003903CAA22A16846FEF716FBE2
:101BF00002236A4619460020FFF76CF80020009087
:101C00000190029003904CAA1DA16846FEF706FBC6
:101C100002236A4606210020FFF75CF800200A49EB
:101C200008804FF4FA710948FEF7EFFC0A20FFF72D
:101C300075FFBBE720302E3936204F4C45442044F9
:101C4000656D6F200000000030000020540000206F
:101C5000B4F2D3A1BDE1B9B9CCE5C4DAC4DAC8DDC8
:101C6000C8E7CFC2A3BA200D0A0000002573200DDB
:101C70000A000000576561746865723A25730000B8
:101C800054656D70657261747572653A25730000F4
:101C900070B505460F48007C20B90E49086880479A
:101CA000012070BDB5F5804F11D269090948C0689F
:101CB00030F81120002406E00020064BDB680E19E6
:101CC00023F81600641C9442F6DB0020E9E70220AA
:101CD000E7E700004000002000B509494FF48062AA
:101CE000C868002100F07CF805494FF480428868FC
:101CF000002100F075F801200149087400BD0000C2
:101D0000400000202DE9F04106460024A0461A4874
:101D1000007C10B91849086880471EB94FF0FF30A1
:101D2000BDE8F081C6F34F1506F01F0008B1681C2E
:101D300085B240F2FF141AE00F48C06830F8140072
:101D400020B908F101001FFA80F801E04FF0000807
:101D5000A8450BD1002705E00748C068E11920F825
:101D600011507F1CAF42F7D36001D9E7641E002CED
:101D7000E2DA4FF0FF30D3E74000002000220021DC
:101D800006E00748C06830F8110000B1521C491C39
:101D9000B1F5007FF5D364205043C0F3472070476E
:101DA0004000002070B5044604B970BD0348806847
:101DB000251A2846FFF76CFF00BFF6E74000002019
:101DC00070B505462846FFF79DFF0446601C08B91C
:101DD000002070BD014880682044FAE740000020E0
:101DE00030B5034601E003F8011B141EA2F1010205
:101DF000F9D130BD2DE9F04705460C4620785B2827
:101E000004D0264804600020BDE8F0870520E86083
:101E1000601C01F067F8044620785D2801D1601C41
:101E2000F2E7FFF74BFC0646A860A86808B9002057
:101E3000EAE7204601F056F880464146304600F079
:101E400007FB074601F04EF804460CB90020DBE71B
:101E500017E0FFF733FC071E00D1D5E737607E603F
:101E60003E46601C01F03EF881464946304600F08F
:101E7000EFFA804601F036F804460CB90020C3E7BB
:101E800000BF20782C28E4D020785D2801D1601C88
:101E9000BAE7024804600020B6E7000034000020E2
:101EA000014600220878302806DB0878392803DC50
:101EB00008783038024415E00878412806DB0878B5
:101EC000462803DC0878373802440BE0087861289C
:101ED00006DB0878662803DC08785738024401E0FE
:101EE000002070471201491C0878302806DB08786A
:101EF000392803DC08783038024415E00878412896
:101F000006DB0878462803DC0878373802440BE003
:101F10000878612806DB0878662803DC08785738DB
:101F2000024401E00020DCE71201491C0878302857
:101F300006DB0878392803DC08783038024415E0DD
:101F40000878412806DB0878462803DC087837380B
:101F500002440BE00878612806DB0878662803DC79
:101F600008785738024401E00020BAE71201491C02
:101F70000878302806DB0878392803DC0878303800
:101F8000024415E00878412806DB0878462803DC7F
:101F90000878373802440BE00878612806DB0878B7
:101FA000662803DC08785738024401E0002098E7EF
:101FB000104696E72DE9F04F8BB083468A46002005
:101FC000044605460026674F002188468946099049
:101FD000012008909AF800002D2802D1624F0AF1E2
:101FE000010A9AF80000302801D10AF1010A9AF892
:101FF0000000312822DB9AF8000039281EDC00BFDF
:102000001AF8011BA1F1300001F053FA0022574BDE
:10201000CDE906012046294601F09EFACDE90401EA
:10202000DDE9062301F002F804460D469AF80000A7
:10203000302803DB9AF800003928E1DD9AF8000027
:102040002E2830D19AF8010030282CDB9AF80100B4
:10205000392828DC0AF1010A00BF1AF8011BA1F196
:10206000300001F026FA0022404BCDE9060120465F
:10207000294601F071FACDE90401DDE9062300F0FB
:10208000D5FF04460D460022364B4046494601F036
:1020900089FC804689469AF80000302803DB9AF8CC
:1020A00000003928D9DD9AF80000652803D09AF895
:1020B0000000452823D10AF1010A9AF800002B28D4
:1020C00002D10AF1010A08E09AF800002D2804D193
:1020D0004FF0FF3008900AF1010A08E01AF8010BEE
:1020E0003038099901EB810100EB410009909AF821
:1020F0000000302803DB9AF800003928EEDDDDE926
:10210000082101FB02F001F0D4F942464B46CDE92B
:10211000000100F08BFF02460B46CDE902010020D2
:10212000124900F0F3F922462B46CDE9060130466C
:10213000394601F011FACDE90401DDE9062301F089
:102140000BFA04460D46CBE906452046294601F028
:1021500081F9CBF814000320CBF80C0050460BB0EB
:10216000BDE8F08F0000F03F0000F0BF0000244009
:102170002DE9F04706460C4620787B2804D04048DD
:1021800004600020BDE8F0870620F060601C00F0CD
:10219000A9FE044620787D2801D1601CF2E7FFF7F4
:1021A0008DFA0546B060B06808B90020EAE720461D
:1021B00000F098FE80464146284600F063F8074646
:1021C00000F090FE04460CB90020DBE72869286285
:1021D0000020286120783A2803D029480460002094
:1021E000D0E7601C00F07EFE80464146284600F0A5
:1021F0002FF9074600F076FE04460CB90020C1E72F
:1022000031E0FFF75BFA071E00D1BBE72F607D606E
:102210003D46601C00F066FE81464946284600F0B7
:1022200031F8804600F05EFE04460CB90020A9E7B4
:10223000286928620020286120783A2803D01048B5
:10224000046000209EE7601C00F04CFE8146494679
:10225000284600F0FDF8804600F044FE04460CB924
:1022600000208FE700BF20782C28CAD020787D2856
:1022700001D1601C86E702480460002082E700006C
:10228000340000202DE9F05F8346884608F1010400
:10229000002798F80000222805D06A48C0F800807E
:1022A0000020BDE8F09F04E014F8011B5C2900D178
:1022B000641C2078222804D0207810B1781C071ED6
:1022C000F2D1781C6049096888478146B9F1000F4E
:1022D00001D10020E5E708F101044D469EE0207899
:1022E0005C2804D014F8010B05F8010B96E0641C7F
:1022F0002078722818D006DC622809D066280BD016
:102300006E287DD10CE0742812D07528F9D113E025
:10231000082005F8010B7FE00C2005F8010B7BE09D
:102320000A2005F8010B77E00D2005F8010B73E09A
:10233000092005F8010B6FE0601CFFF7B1FD0646B0
:10234000241DB6F55C4F02D3B6F5604F00D306B935
:1023500062E0B6F5584F1CD3B6F55C4F19D26078E1
:102360005C2802D1A078752800D055E0E01CFFF76A
:1023700097FD8246A41DBAF55C4F02D3BAF5604FB3
:1023800000D349E0C6F30901504661F39F2000F5F0
:1023900080360427802E01D2012708E0B6F5006FB1
:1023A00001D2022703E0B6F5803F00D203273D4467
:1023B000012F20D0022F15D0032F0AD0042F24D1B3
:1023C00006F0BF0040F08001681E05460170B609A6
:1023D00000BF06F0BF0040F08001681E0546017096
:1023E000B60900BF06F0BF0040F08001681E054638
:1023F0000170B60900BF1548C05D3043C1B200E0AE
:1024000006E0681E0546017000BF00BF3D4403E0C2
:10241000207805F8010B00BF00BF641C207822283B
:1024200003D0207800287FF45AAF0020287020784D
:10243000222800D1641CCBF810900420CBF80C00AB
:1024400020462EE73400002038000020683C0008B9
:1024500070B505460C460CB9002070BD042224A1BD
:102460002046FEF710F818B90220E860201DF4E7B6
:10247000052221A12046FEF706F818B90020E860E1
:10248000601DEAE704221EA12046FDF7FCFF20B9EB
:102490000120E8606861201DDFE72078222804D150
:1024A00021462846FFF7EEFED7E720782D2805D0F5
:1024B0002078302807DB2078392804DC214628469C
:1024C000FFF778FDC9E720785B2804D1214628462C
:1024D000FFF790FCC1E720787B2804D121462846ED
:1024E000FFF746FEB9E7084804600020B5E70000A2
:1024F0006E756C6C0000000066616C736500000016
:102500007472756500000000340000202DE9F04D64
:102510001D460C4698B0174621F0004123F00043B9
:10252000002814BF4FF0010C4FF0000C0CEB440CD2
:10253000FE4A0CEB02064FEA620C66452BD33E00C6
:1025400018BF012606EB45061644F94A964222D3E7
:10255000F84A53EA070C02D0944205D148B918B0A2
:1025600000201146BDE8F08D002808BF4FF0000C98
:1025700001D04FF0010C0CEB440212F5001F0AD8F9
:10258000002F14BF4FF0010C4FF0000C0CEB450274
:1025900012F5001F07D918B03A462B462146BDE870
:1025A000F04DFFF715B80022DFF88CA3002CB8BF60
:1025B000534526DADFF884C36345A8BF022220DA38
:1025C000DFF870C39C451CDCDFF874C30CEB235CA4
:1025D000BCF1140F08DDCCF1340627FA06FC0CFA26
:1025E00006F6BE420DD108E05FB9CCF1140623FA1D
:1025F00006FC0CFA06F69E4203D10CF00102C2F171
:10260000020251EA000C19D1002D17DA002C18BF74
:10261000022A01D0012A07D00220FEF750F818B094
:10262000BDE8F04DFEF7CCBF0220FEF748F8FEF7FC
:10263000C7FF18B081F00041BDE8F08DB7F1000C84
:102640006CD1534525D104F1804212F5801201BFAF
:1026500000280020B74918B008BFBDE8F08DB54884
:10266000884207DC002DA1BF6046294618B0BDE8AE
:10267000F08D07E0281E05DA80F0004118B06046B2
:10268000BDE8F08DAF497944D1E9000118B0BDE84B
:10269000F08DDFF8A0C2634525D1002D1FDA19B1F6
:1026A000514512D1D8B909E0002840F0EC82A24A85
:1026B000214618B062F31E01BDE8F08D00202146CE
:1026C00018B060F31E01BDE8F08D08DA18B023469B
:1026D000BDE8F04D02460020614600F063BD18B031
:1026E0002146BDE8F08D514518DAB5F1804F0DD087
:1026F000A5F1005CBCF1FF5C10D1B4F1000C0DDB66
:1027000018B06146BDE8F04D00F0F5BB234618B0A7
:102710000246BDE8F04D194600F01EBF060024F049
:10272000004C3BD1D9B1514533D1002C06DD002DF1
:10273000A1BF0020514618B0BDE8F08D002C01DD8E
:10274000002D1BDB002C13DA002D11DB012A4FF0CA
:10275000000014BF78497C4918B0BDE8F08D022A0A
:1027600018BF002C0AD0012A08D1002C06DA0AE092
:10277000002CB8BF002D11DA012A04D0002018B0B7
:102780000146BDE8F08D18B000204FF00041BDE8D3
:10279000F08DA1F14050B0F17F601AD0012000EB24
:1027A000E47050EA020421D0624C521E4FF0000B3C
:1027B000104304BF4FF0000B644C654883427CDD3E
:1027C000644A654893421FDD884217DB002D25DBF4
:1027D00037E0002C00DA4AB1022A0CBF01204FF08A
:1027E000FF3018B0BDE8F04D00F063BE0120FDF7EA
:1027F00066FF18B0BDE8F04DFEF7ECBE4D4A8A42C8
:1028000002DC002D0ADC1CE0814202DA002D18DA1D
:1028100004E0484B994220DD002D12DD0220FDF737
:102820004EFFFEF7DDFE05460E4600225346584693
:10283000214600F091FE18B066F31E012846BDE85F
:10284000F08D0220FDF73BFFFEF7D2FE0A4621463F
:1028500018B062F31E01BDE8F08D002230466146DB
:1028600001F0A0F880460E466FF0010201F0B6F9C3
:102870004FF05532394B00F0A3FF4246334600F08B
:102880006BFE0022364B00F09BFF824642463346E9
:1028900004911046194600F05FFE5246049B00F07A
:1028A0005BFE8A4600904FF0C0422E4B40463146B8
:1028B00000F052FE2C4A2B4B00E027E0CDE9060148
:1028C0005146009800F048FE82460191274A284B65
:1028D0004046314600F040FE5246019B01F062F84E
:1028E00082460B4602460591DDE9060100F09EFB9B
:1028F000DDE9062300268846304601F053F85246AB
:10290000059B00F05DFF024600F07EB90020B1F5A6
:10291000801F07DA35223046614601F05FF906462E
:102920006FF0340000EB215024E00000FFFF1F0097
:10293000FFFF0F000000F03F0000F07F0000404369
:1029400001FCFFFF961E00000000F0FF0000F0BF3A
:102950000000E0410000F043FFFFEF3F5555D53F39
:102960000000E03F4715F73FFE822B6544DF5DF82E
:102970000BAE543EA0F2FF300190C1F3130040F0C3
:102980007F6141F040510291FE498842D8BF00204A
:1029900004DDFD498142C8BF012001DD0D9008E042
:1029A00000200D900198401C01900298A0F5801025
:1029B00002900299F54878440B910D9900EBC10003
:1029C000D0E900230F9330460A920B9900F0EAFFFA
:1029D000CDE90601DDE90A2130460F9B00F026FB18
:1029E00002460B460020EA4900F0DCFB0591024656
:1029F0000B460090DDE9060100F0AEFD1490E548BD
:102A00008A464FF0000878440299006812904FF00F
:102A1000005040EA61010D980F9B01EB804000F5EA
:102A2000002109910A9A129800F0BCFF32460B9BD4
:102A300000F0C6FE4246534600F08EFD0646029167
:102A400040465146099B129A00F086FDDDE90623B7
:102A500000F0B6FE3246029B00F0A4FF059B009AF0
:102A600000F07AFD0091149A0490534610461946DE
:102A700000F072FD06460246C7480B460291062149
:102A80007844FEF748FDCDE90510029B324610461A
:102A9000194600F061FDDDE9053200F05DFD0591AC
:102AA0000646534640461946149A00F0BFFA009B6A
:102AB000049A00F051FD3246059B00F0B7FACDE9CB
:102AC0000510424653461046194600F045FD0022C7
:102AD000B24B02910A9000F0A9FADDE9053200F04C
:102AE000A5FA0E464246AD4B404600F05BFF029B06
:102AF0000A9A00F057FFDDE9053200F061FE424618
:102B000002910A9033461046514600F025FDCDE96A
:102B100006015346149A02990A9800F01DFD8A4650
:102B20000290334642460099049800F015FD534642
:102B3000029A00F07BFA82460B4602460591DDE9D7
:102B4000060100F073FADDE90623002088460646F8
:102B500000F028FF5246059B00F032FE82460991A4
:102B60004FF060428E4B3046414600F0F5FC049039
:102B700006918C4A8A4B5046099900F0EDFC82463A
:102B80000291894A894B3046414600F0E5FC5246A5
:102B9000029B00F04BFA864B7B440D9A03EBC20379
:102BA000D3E9002300F042FA0E900791019800F05B
:102BB00080FC0591DDE9061382460E9A049800F028
:102BC00035FA7C4A7A440D9B02EBC303D3E9002318
:102BD0000093029200F02AFA5246059B00F026FA72
:102BE0000026884652463046059B00F0DBFE009BDF
:102BF000029A00F0D7FE069B049A00F0D3FE079BD2
:102C00000E9A00F0DDFD024600200B460290384689
:102C1000294600F0A1FC824601912B463846194610
:102C2000029A00F0BFFE3246434600F095FC524641
:102C3000019B00F0FBF907468A4632464346294687
:102C4000029800F089FC05460E463A46534600F0CD
:102C5000EDF9594A8846914221DBA8EB020353EA79
:102C6000000210D12A46334600F09CFECDE9040153
:102C7000524A534B3846514600F0D8F9DDE9042357
:102C800000F068FD21D20220FDF719FDFEF7A8FC37
:102C90000A46214618B062F31E01BDE8F08D494B8B
:102CA00028F000429A4210D3474A08EB020353EA45
:102CB00000027FF4C6AD2A46334600F073FE3A4662
:102CC000534600F047FD7FF6BCAD0022019228F08C
:102CD00000403E493E4A01EB2051824223DA481C23
:102CE0004FF4801121FA00F040443A4AC0F30A51EF
:102CF0007A44394BA1F2FF31CB4020EA0303C0F301
:102D0000130040F48010C1F11401C8401268019012
:102D1000B8F1000FBCBF404201902846314600F098
:102D200041FE05460E462A4633463846514600F0D7
:102D30007DF94FF000084246284B4046059100F0CF
:102D40000BFCCDE90601264A264B4046059900F0CA
:102D500003FC009102902A4633464046059900F054
:102D600021FE3A46534600F02BFD1F4A1F4B00F050
:102D7000F3FB009B029A00F059F907468846024689
:102D80000B4635E08E9803007AB60B00DE1A000081
:102D90000000F03F161B0000441A0000000008402D
:102DA00009C7EE3FFD033ADCF5015B14E02F3EBEA0
:102DB0001C190000E018000000009040FE822B6506
:102DC0004715973C00CC904000346F3F01FCFFFF5B
:102DD0000000E03F2C180000FFFF0F00432EE63FED
:102DE000396CA80C615C20BEEF39FAFE422EE63F3A
:102DF000DDE9060100F01AF9DDE9062305460E4675
:102E000000F0D0FD3A46434600F0DAFC0F462A4671
:102E1000334600901046194600F09EFB824602465B
:102E20002E4888460B4605217844FEF774FB52462F
:102E3000434600F091FB2A46334600F0C1FC804631
:102E40008A463B4628463146009A00F085FB3B46C1
:102E5000009A00F0EBF80691009000224FF08043BA
:102E60004046514600F09EFD0F460C9042465346A8
:102E70002846314600F070FB3B460C9A00F092F970
:102E8000069B009A00F08EFD2A46334600F08AFD2C
:102E90000022134B00F094FC054601980E4601EB0E
:102EA00000510815002810DC28463146019A00F030
:102EB00095FEFEF71CFB042808BFFEF799FB284689
:102EC0003146019A00F08AFE05460B4618B02A46A4
:102ED00058462146BDE8F04D00F03EBBCC16000040
:102EE0000000F03F00E0401C20B1017811B10178F2
:102EF0002029F8DD70472DE9F04106460F4600F025
:102F00006BFC041E0D4618BF0120284320F0004032
:102F1000C0F17F6000F1E040C00F0ED0301C18BF40
:102F20000120384320F00040C0F17F6000F1E04014
:102F3000C00F04BF0120FDF7C2FB20462946BDE8B3
:102F4000F081000010B586B00446012144F204006F
:102F5000FDF7A8FF4FF40070ADF8140003208DF8C2
:102F6000160018208DF8170005A92248FDF7CDFCA2
:102F70004FF48060ADF8140004208DF8170005A907
:102F80001C48FDF7C2FC25208DF8000003208DF8B9
:102F900001008DF8020001208DF803006846FDF75E
:102FA00049FD01940020ADF80800ADF80A00ADF825
:102FB0000C00ADF810000C20ADF80E0001A90E4871
:102FC000FEF722FA012240F225510B48FEF7F7F9ED
:102FD00001210948FEF7BDF941F61F4140F2E730F3
:102FE000FEF7B0F8002005490880FEF7DBF806B0D0
:102FF00010BD0000000801400038014030000020F2
:1030000010B500290AD00878002807D00548784470
:10301000FDF738FC002801D0002010BD024878449C
:1030200010BD00002A1600002216000010B591EA1B
:10303000030F48BF83F0004300F1BC84841A71EB96
:10304000030C05D2121943EB0C03001B61EB0C01BE
:10305000DFF824E14FEA1154A4EB135C1EEA430F9E
:1030600018BF9EEA445F73D023EA0E03DCF1200E02
:1030700021EA045143F4801332D322FA0CFE10EB00
:103080000E0023FA0CFE41EB0E01CCF1200E03FAE8
:103090000EFE10EB0E0051F10001B1F5801FCCF1D6
:1030A000200E32D201EB045112FA0EF2BDE81040AC
:1030B00058BF7047401C38BF5FEA420218BF7047D4
:1030C000002814BF20F0010041F100014FEA410344
:1030D00013F5001F38BF7047A1F1C04100F034BBA9
:1030E000012A43EB0302ACF1200CDCF11F0E32BFCE
:1030F0004FF0000E23FA0CF310EB030041EB0451E8
:10310000B4EB115FD0D0A1EB045101F58011490857
:103110005FEA300001EB04510ED350F1000038BFDC
:1031200012FA0EFE08D1BDE81040C9E7401C38BFB6
:103130005FEA4202CAD1C3E7BDE810404FEA41034B
:1031400013F5001F38BF7047A1F1C04100F0FCBA71
:103150009EEA445F08D011EA5E0FBDE8104004BF4C
:1031600001F0004100207047BDE8104070B500F04C
:103170009DFA00BF64FBBE3E0000E0FF02494FF035
:10318000000000F0F9BC00BF0000F87F491058BFF4
:10319000C1F140415B1058BFC3F140438B42EFF394
:1031A000008070472DE9C04130B4DFF8A0C23CEA8E
:1031B000111418BF3CEA131400F0EC8081EA0305F7
:1031C0001CEA111444EAD57418BF1CEA131500F068
:1031D000C780A4EB05044FF0004545EAC12145EA4C
:1031E000C32341EA505143EA525304F17F74994298
:1031F00004F500344FEAC0204FEAC22208BF9042D3
:1032000000F09C804FEA13650FF24016765D4FEA9E
:10321000134506FB05F7C7F1807706FB07F74FEA72
:10322000D737A7FB03687642C8F58038A7FB06CEE0
:1032300038BFA8F1010807FB08E64FF0000EA6FB17
:10324000028CE6FB03CEDCF1000CCEF1004E38BF61
:10325000AEF1010EA6FB0C584FF000074FF0000531
:10326000E6FB0E87A1FB08C6A0FB07CE16EB0E06F9
:1032700045F10005E1FB076515F1E04E7EBFA4F5C1
:1032800080345FEA46066D4116F1800745F100057E
:103290004FEA17274FEA066647EA0567A6F1DE46BA
:1032A000B6F1805F4FEA15251FD9384624F0010C8E
:1032B00005EBC471BCF1FE6F01EB0C1102D8F0BC40
:1032C000BDE8008124425CBF01F5801E9EEAC47FF8
:1032D00002D4F0BCBDE80081244238D4F0BCA1F196
:1032E000C041BDE8004100F02FBA4FEAD22242EAC5
:1032F00043524FEAD323A7FB02864FEAD02040EA8D
:10330000415007FB03661EEA0E0F4FEAD12105FB71
:10331000026658BFA6EB0056B6EB00564FEA520EB7
:103320004EEAC37E18EB0E0E56EB530EBDD518EBCE
:1033300002085E417F1C55F10005B6E74FF4801589
:103340004FF000074FF000064FF00008ADE7F0BC6B
:103350004FF0000001F1C04101F00041BDE80081E3
:1033600011EA0C1F0CEA131500D00CE013EA0C1F35
:1033700000F025804FF00000F0BC81EA030101F06D
:103380000041BDE80081F0BCBDE8004181EA0301D5
:1033900000F0DAB9F0BCBDE8004170B500F086F984
:1033A000097EFC3E00F007B881EA03014FF00000FF
:1033B00001F00041704781EA030100F0C5B9F0BC9B
:1033C000BDE800414FF0000021497047FFFDFBF9C7
:1033D000F7F5F4F2F0EEEDEBE9E8E6E4E3E1E0DE48
:1033E000DDDBDAD8D7D5D4D3D1D0CFCDCCCBCAC8BA
:1033F000C7C6C5C4C2C1C0BFBEBDBCBBBAB9B8B7E1
:10340000B6B5B4B3B2B1B0AFAEADACABAAA9A8A8D3
:10341000A7A6A5A4A3A3A2A1A09F9F9E9D9C9C9BA1
:103420009A9999989797969595949393929191904C
:103430008F8F8E8E8D8C8C8B8B8A898988888787DD
:103440008685858484838382828181800000FF0752
:103450000000F87F4FEA41034FEA5353A3F580631E
:10346000D3F11E03C8BFD3F1210C0CDD4FF0004295
:1034700042EAC12242EA505232FA03FC8CEAE17C71
:10348000ACEBE1707047102BC4BF0020704703F510
:10349000787CBCF1FF3F04D06FF0004282EA21004B
:1034A000704770B500F002F94992248000207047FF
:1034B000F2E710F0004248BF4042B0FA80F310FA41
:1034C00003F10AD0C3F11D0303F580634FEA4150B5
:1034D00002EB035202EBD12170474FF0000070471E
:1034E00051EA030C17D41CF5801F58BFBCF5801F90
:1034F00000F10680994218BF704708BF904270479C
:1035000007D711F5801F58BF13F5801F19D49942B2
:103510007047894270471CF5801F08D5BCF5801F95
:10352000F7D58B4218BF704708BF824270474FF4EF
:10353000001C1CEB410F38BF1CEB430F01D28B4228
:10354000704770B500F0B2F8922449004FF0005176
:103550004FF08053FFF71ABEDFF848C170B51CEA80
:10356000111E1EBF1CEA13159EEA0C0F95EA0C0FE4
:1035700000F06F8081EA030423EA4C134EEAD47E04
:1035800021EA4C1141F4801143F48013AE44A1FBB5
:10359000024CA0FB0365AEF17F7E361955EB0C059E
:1035A000A1FB034C4CF10003A0FB021C16EB0C0624
:1035B000654153F10003094218BF46F0010613F4B8
:1035C000007F0BD14FEA03314FEA0530340341EA63
:1035D000155140EA16506FF003020AE04FEAC3218A
:1035E0004FEAC520F40241EA555140EA56506FF0C7
:1035F000020202EB2E4201EB025585EACE710AD09F
:103600005FEA440C18BF24F0004450F1000041F17F
:10361000000120EAD47040F2FE7C624500D270BD09
:10362000A84214BF4FF080444FF04044002E08BF22
:103630000024BEF1806FA8BFA1F1C041BDE8704079
:1036400080F282804FF0000001F1C04101F00041A2
:1036500070479EEA0C0F0CEA131518BF95EA0C0F81
:1036600006D04FF0000081EA030E0EF0004170BD5D
:1036700000F01CF88900013E00F007B800F009B81E
:103680004FEA430C5FEA5C5C08D081EA030100F07A
:103690005BB84FEA410C5FEA5C5CF6D14FF000008A
:1036A000014970470000FF070000F87F0EF1020E8D
:1036B0002EF0030E5EF8046B364205D4012A43EB6C
:1036C000030515F5001F12D8012841EB010C1CF56C
:1036D000001F0CD80ED14FEAD17C15F5001F0CEB62
:1036E0004C0C0CF1020C08BF4CEBD37C04E04FF007
:1036F000080C01E04FEAD37C0CEB4C0526FA05F6EA
:1037000006F00706B6F1040C06D20EEB860CBDE8F7
:1037100070404CF0010C6047DFE80CF0090B02022E
:103720004FF000414FF00000A1F5002170BD194697
:103730001046012851EB010418BFD4F5001484BFD2
:10374000002001F0004170BD0808A0F500114FEA0B
:103750003101704753EA010C17D41CF5801F58BF84
:10376000BCF5801F00F106808B4218BF704708BF70
:103770008242704707D713F5801F58BF11F5801F8D
:1037800019D48B4270479B4270471CF5801F08D5A7
:10379000BCF5801FF7D5994218BF704708BF90420B
:1037A00070474FF4001C1CEB430F38BF1CEB410F5C
:1037B00001D2994270470FB40CBC03BCFFF7C1BEE5
:1037C00091EA030F10B581F000413FF537AC83F06B
:1037D000004300F0EFB800002DE9F04101F5801C36
:1037E000BCF5001FC0F2C3804FEA115C21EA0C5106
:1037F0000CF1FD0C41F480115FEA5C0C0CF5C07C0F
:1038000001D3400049413DA4890241EA9051870219
:103810008E0E0A0CA45D04FB04F602FB06F6C6F14C
:103820004046A4FB0662F60D46EA422606FB06F475
:10383000A4FB01235242C3F1404338BF5B1EA6FBE9
:1038400002420024E6FB0324D20B42EA4446A6FBD4
:103850000623A1FB02E2A3FB07E4A4184FF0000239
:1038600052F10002E3FB01426442C2F1404E38BF14
:10387000AEF1010EA6FB04234FF00002E6FB0E3270
:10388000A2FB03464FF00004B61954F10004E2FB1A
:103890000264A1FB06E6A4FB07E816EB08064FF05E
:1038A000000858F10008E4FB01687642C8F140586E
:1038B00038BFA8F10108A2FB06E4A3FB08E52D1917
:1038C0004FF0000454F10004E2FB0854A1FB05E6AC
:1038D000A7FB04E818EB06084FF0000656F10006B7
:1038E000E1FB048618F1200556F10006A809A8F1AD
:1038F0001B08B10908F03F08B8F10A0F40EA8660DA
:103900001CD901EB0C51BDE8F08100BFFCF5EEE8DD
:10391000E2DDD8D3CFCBC7C3C0BDB9B6B4B1AEAC6E
:10392000A9A7A5A3A19F9D9B9A9896959392908FE6
:103930008D8C8B898887868584838281A0FB006833
:1039400000FB01F208EB4208B8EB872807D53418D2
:1039500058EB0104D5D5401C51F10001D1E7341AD0
:1039600078EB0104CDD4401E71F10001C9E75FEA94
:103970004C0C5FEA9C5C0DD105D34FF0000001F0C8
:103980000041BDE8F081BDE8F04170B5FFF78EFE63
:103990006DDBFFBEBDE8F0414FF00000004970470D
:1039A0000000F87F10B591EA030F48BF83F0004391
:1039B0003FF544AB841A71EB030C07D212198CF05B
:1039C000004C43EB0C03001B61EB0C01DFF8A4E19E
:1039D0004FEA1154A4EB135C1EEA430F18BF9EEA92
:1039E000445F00F0B08023EA6E03524221EA0451A2
:1039F000C3EB6E0338BF5B1EDCF1200E25D322FA29
:103A00000CFE10EB0E0043FA0CFE41EB0E01CCF164
:103A1000200E03FA0EFE10EB0E0051F10001CCF166
:103A2000200E29D412FA0EF201EB0451BDE8104029
:103A300058BF7047401C1CBFB2F1004F70470028B0
:103A40000CBF491C20F00100704712EB020E43EB43
:103A5000030218BF4FF0010E4EEA4202ACF1200CF7
:103A6000DCF11E0E54D943FA0CFE10EB0E0051F19E
:103A7000FF31CCF11E0ED5D50EF1010E12FA0EFE5D
:103A8000404141EB010101EB445C5FEA5C5C10D911
:103A900010EBDE7001EB045138BFBEF1004FBDE802
:103AA000104018BF704700280CBF491C20F00100CF
:103AB000704730D24FEAD42C11F5001124F4006481
:103AC0001BD0B1FA81F20B3AA41AA41ED2F1200342
:103AD000914030FA03F31943904001EBCC71002C74
:103AE00001EB0451BDE81040A8BF704701F1C0418F
:103AF0004FF0000001F000417047B0FA80F310FA77
:103B000003F100D110BDE41A173C4805C90AE4E7E7
:103B100001EB045110BD491001EB0451BDE8104008
:103B20004FEA300002E04FF0000170474A0008BF42
:103B30000042F8D0B2F5001F28BF704701F00041E5
:103B40004FF0000070479EEA445F07D011EA5E0F15
:103B5000BDE8104004BF002100207047BDE81040C0
:103B600070B5FFF7A3FD00BF40DFF63E83F00041D4
:103B7000104670470000E0FF0CF00F03092B08BF50
:103B8000082000F059800A2B0BD0082B18BF704773
:103B900008BF1CF0400F0AD04FF000004FF00001AA
:103BA00070471CF0400F18BF4FF0004070471CF0EA
:103BB000100F08D020F0704300F07F4242EAD3019A
:103BC0004FEA4370704700F0604021F07F4242EAC4
:103BD000000201F07F4040EA727070474FF0FF0C26
:103BE0004CF4E06C1CEA11531CBF9CEA030C944596
:103BF000C2BFDA4201EB02517047002B0DD0BCF17D
:103C0000000F0FD0002A01F00041A4BF41F0E041B5
:103C100041F07F614FF00000704701F000414FF02C
:103C20000000704750EA01334FF09B0C18BF4CF076
:103C3000806C7FF4A3AA70471CF4801F11D01CF481
:103C4000E02F03D06FEACC31490070474FF040506D
:103C5000EFF3008222F0704242EA000282F3008811
:103C600070474FF0000070470000C0E0F0F8FC0023
:103C700000000000000000002F0000000007000707
:103C80000000147F147F1400242A7F2A120062642B
:103C90000813230036495522500000050300000098
:103CA000001C224100000041221C000014083E08B4
:103CB000140008083E0808000000A0600000080882
:103CC00008080800006060000000201008040200DE
:103CD0003E5149453E0000427F400000426151494B
:103CE00046002141454B31001814127F1000274532
:103CF000454539003C4A4949300001710905030036
:103D0000364949493600064949291E000036360021
:103D10000000005636000000081422410000141470
:103D20001414140000412214080002015109060075
:103D3000324959513E007C1211127C007F49494999
:103D400036003E41414122007F4141221C007F4913
:103D5000494941007F09090901003E4149497A006A
:103D60007F0808087F0000417F4100002040413F5C
:103D700001007F08142241007F40404040007F0244
:103D80000C027F007F0408107F003E4141413E004D
:103D90007F09090906003E4151215E007F0919296A
:103DA000460046494949310001017F0101003F4079
:103DB00040403F001F2040201F003F4038403F0050
:103DC000631408146300070870080700615149452F
:103DD0004300007F41410000552A552A550000410B
:103DE000417F0000040201020400404040404000C6
:103DF0000001020400002054545478007F484444D9
:103E00003800384444442000384444487F00385443
:103E100054541800087E0901020018A4A4A47C00D0
:103E20007F080404780000447D4000004080847DC9
:103E300000007F102844000000417F4000007C0407
:103E4000180478007C08040478003844444438009E
:103E5000FC242424180018242418FC007C080404E2
:103E60000800485454542000043F444020003C4083
:103E700040207C001C2040201C003C4030403C0086
:103E80004428102844001CA0A0A07C004464544C8A
:103E90004414141414141400000000000000000066
:103EA00000000000000000000000F800000000001A
:103EB0000000333000000000100C06100C0600005B
:103EC0000000000000000040C07840C078400004BE
:103ED0003F04043F040400007088FC083000000028
:103EE0001820FF211E0000F008F000E0180000007C
:103EF000211C031E211E0000F00888700000001E17
:103F00002123241927211010160E000000000000A4
:103F100000000000000000000000E01804020000A3
:103F20000000071820400000020418E00000000014
:103F300040201807000000404080F0804040000210
:103F400002010F01020200000000F0000000000169
:103F500001011F01010100000000000000000080BD
:103F6000B070000000000000000000000000000031
:103F7000010101010101010000000000000000003A
:103F800030300000000000000000008060180400D5
:103F90006018060100000000E010080810E00000B2
:103FA0000F102020100F00001010F800000000007B
:103FB00020203F20200000007008080888700000C2
:103FC0003028242221300000300888884830000042
:103FD00018202020110E000000C02010F800000062
:103FE000070424243F240000F808888808080000FB
:103FF00019212020110E0000E01088881800000010
:104000000F112020110E0000380808C838080000E1
:1040100000003F0000000000708808088870000061
:104020001C222121221C0000E010080810E00000E2
:1040300000312222110F00000000C0C0000000006B
:104040000000303000000000000080000000000090
:104050000080600000000000008040201008000088
:10406000010204081020004040404040404000044D
:104070000404040404040000081020408000000030
:1040800020100804020100007048080808F0000031
:1040900000003036010000C030C828E810E00007FA
:1040A00018272423140B000000C038E00000002073
:1040B0003C23020227382008F888888870000020F6
:1040C0003F202020110E00C03008080808380007E3
:1040D0001820202010080008F808080810E0002028
:1040E0003F202020100F0008F88888E808100020E2
:1040F0003F20202320180008F88888E808100020B6
:104100003F200003000000C0300808083800000706
:10411000182020221E020008F808000008F80820D5
:104120003F210101213F20000808F8080800000095
:1041300020203F2020000000000808F8080800C0E8
:104140008080807F00000008F888C02818080020C0
:104150003F20012638200008F80800000000002059
:104160003F20202020300008F8F800F8F808002050
:104170003F003F003F200008F830C00008F808204A
:104180003F200007183F00E01008080810E0000F6B
:1041900010202020100F0008F808080808F0002060
:1041A0003F210101010000E01008080810E0000FA5
:1041B00018242438504F0008F88888888870002018
:1041C0003F2000030C3020007088080808380000E9
:1041D00038202121221C00180808F80808180000BF
:1041E00000203F2000000008F808000008F8080040
:1041F0001F202020201F000878880000C8380800F1
:104200000007380E010000F80800F80008F8000365
:104210003C0700073C0300081868808068180820E5
:10422000302C03032C30200838C800C838080000A0
:1042300000203F2000000010080808C838080020AF
:1042400038262120201800000000FE020202000093
:1042500000007F40404000000C30C0000000000023
:104260000000010638C00000020202FE000000004B
:104270004040407F000000000004020202040000F1
:1042800000000000000000000000000000000080AE
:104290008080808080808000020204000000000096
:1042A000000000000000000000808080800000000E
:1042B00019242222223F2008F800808000000000FC
:1042C0003F112020110E00000000808080000000BF
:1042D0000E112020201100000000808088F80000CE
:1042E0000E112020103F2000008080808000000000
:1042F0001F222222221300008080F0888888180064
:1043000020203F202000000000808080808000006E
:104310006B94949493600008F800808080000020E3
:104320003F210000203F20008098980000000000FE
:1043300020203F202000000000008098980000000E
:10434000C08080807F000008F8000080808000200E
:104350003F24022D302000000808F8000000000073
:1043600020203F20200000808080808080800020EE
:104370003F20003F20003F808000808080000020A0
:104380003F210000203F200000808080800000004E
:104390001F202020201F00808000808000000080DF
:1043A000FFA12020110E000000008080808000000E
:1043B0000E112020A0FF808080800080808000205F
:1043C000203F2120000100000080808080800000CC
:1043D00033242424241900008080E0808000000021
:1043E00000001F202000008080000000808000006E
:1043F0001F202020103F20808080000080808000CF
:10440000010E300806010080800080008080800F4F
:10441000300C030C300F0000808000808080000092
:1044200020312E0E3120008080800000808080802E
:10443000818E7018060100008080808080800000DE
:1044400021302C2221300000000000807C0202007C
:10445000000000003F404000000000FF000000009E
:10446000000000FF0000000002027C80000000004D
:1044700040403F0000000000060101020204040069
:104480000000000000000004000008000000000020
:104490000000020001000010000000000000F03FDA
:1044A000000000000000F83F0000000000000000D5
:1044B0000000004003B8E23F0000000000000000E0
:1044C00006D0CF43EBFD4C3E033333333333E33F6E
:1044D000FFAB6FDBB66DDB3F4D268F515555D53F9A
:1044E00001411DA96074D13F65DBC9934A86CD3F68
:1044F000EF4E454A287ECA3F3E5555555555C53F56
:1045000093BDBE166CC166BF2CDE25AF6A56113F47
:10451000F16BD2C541BDBBBED0A4BE726937663E49
:1045200000000000000000002D2D2D2D2D2D2D2D23
:104530002D2D2D2D2D2D2D2D2D2D2D2D2D2D2D2DAB
:104540002D2D2D2D2D2D2D2D2D7375626F626A65EC
:104550006374312D2D2D2D2D2D2D2D2D2D2D2D2D0A
:104560002D2D2D2D2D2D2D2D2D2D2D2D2D2D2D2D7B
:104570002D2D0D0A000000002D2D2D2D2D2D2D2D62
:104580002D2D2D2D2D2D2D2D2D2D2D2D2D2D2D2D5B
:104590002D2D2D2D2D2D2D2D2D7375626F626A659C
:1045A0006374322D2D2D2D2D2D2D2D2D2D2D2D2DB9
:1045B0002D2D2D2D2D2D2D2D2D2D2D2D2D2D2D2D2B
:1045C0002D2D0D0A000000002D2D2D2D2D2D2D2D12
:1045D0002D2D2D2D2D2D2D2D2D2D2D2D2D2D2D2D0B
:1045E0002D2D2D2D2D2D2D2D2D7375626F626A654C
:1045F0006374332D2D2D2D2D2D2D2D2D2D2D2D2D68
:104600002D2D2D2D2D2D2D2D2D2D2D2D2D2D2D2DDA
:104610002D2D0D0A00000000484700080000002072
:1046200054000000280100089C47000854000020A6
:10463000544C000044010008100100004300000039
:10464000F8FFFFFF004040404040404040404141B3
:104650004141414040404040404040404040404057
:1046600040404040400502020202020202020202F1
:1046700002020202022020202020202020202002EE
:10468000020202020202909090909090101010107E
:10469000101010101010101010101010101010101A
:1046A00002020202020288888888888808080808AE
:1046B000080808080808080808080808080808087A
:1046C00002020202400000000000000000000000A2
:1046D00000000000000000000000000000000000DA
:1046E00000000000000000000000000000000000CA
:1046F00000000000000000000000000000000000BA
:1047000000000000000000000000000000000000A9
:104710000000000000000000000000000000000099
:104720000000000000000000000000000000000089
:104730000000000000000000000000000000000079
:10474000000000000000000000A24A040000000079
:104750000000000001020304060708090000000031
:104760000102030401020304060708090204060803
:104770000000000000000000000000000000000039
:10478000C11D0008A51D0008D91C00087D1D0008DA
:0C47900048020020484200200000000009
:04000005080000ED02
:00000001FF
